:060000000A128A11F32F21
:1009B00064008001840A0406031900340406D92C5B
:1009C000F200831203138715720888000714FE30A3
:1009D000FF007F088705C330F100CD30F000F00B39
:1009E000EF2CF10BEF2C0800F900F801791CF92C21
:1009F000FA2CFE2C7708FF007F08F8070310F70D8C
:100A00000310F90C7908031D062D072DF62C780824
:100A10000800F200F730FF007F08831203138705F8
:100A2000720888000714FE30FF007F088705C33076
:100A3000F100CD30F000F00B1B2DF10B1B2D080049
:100A4000F401F501700871040319272D282D5F2D7D
:100A5000F601F60A362D01300310F00DF10DFF3EC0
:100A6000031D2C2D0130FF007F08F607F11F392DE3
:100A70003A2D2B2D01300310F40DF50DFF3E031D13
:100A80003B2D71087302031D472D70087202031C71
:100A90004A2D4B2D522D7008F2027108031CF303EE
:100AA000F302741401300310F10CF00CFF3E031D2F
:100AB000532D0130F602031D5E2D5F2D3A2D750872
:100AC000F1007408F00008000030FC000030FB006A
:100AD0000030FA000030F900701C6F2D702D872D4A
:100AE0007408F907750803110318013E0319792DDD
:100AF000FA07760803110318013E0319802DFB073E
:100B0000770803110318013E0319872DFC070130F4
:100B1000F8000310F40DF50DF60DF70DF80B892D07
:100B200001300310F30CF20CF10CF00CFF3E031D2E
:100B3000912D7308720471047004031DA02DA12D62
:100B40006C2D7C08F3007B08F2007A08F10079082C
:100B5000F000080083120313B701E22DF630F7000E
:100B60007B08F3007A08F2000A30F0000030F10050
:100B70000A128A1120250A128A1170080A128A1193
:100B8000F4240A128A117A0783120313B400370877
:100B9000203E84003408831380000130FF007F086A
:100BA000B7070A30F0000030F1007B08F3007A0844
:100BB000F2000A128A1120250A128A117108FB001C
:100BC0007008FA007A087B04031DE72DE82DAE2D8E
:100BD000831203133708203E840083138001013001
:100BE000B7023708FC00FD017C08B5007D08B6009F
:100BF000B61FFB2DFC2DFD2D112E3508203E840047
:100C000083130008303E0A128A11E0240A128A1166
:100C1000FF3083120313B5070318B60AFF30B60777
:100C2000F82D0800013083160313850081308312EC
:100C300003139F008E30831603139F003C308312F2
:100C400003139700063092005E3083160313920060
:100C50008701880130300A128A1109250A128A1187
:100C60006230F4006530F300F30B342EF40B342EB5
:100C7000392E30300A128A1109250A128A1162307F
:100C8000F4006530F300F30B432EF40B432E482E93
:100C900030300A128A1109250A128A116230F400D2
:100CA0006530F300F30B522EF40B522E572E3830D2
:100CB0000A128A1109250A128A1183120313881B4A
:100CC000622E632E5D2E08300A128A1109250A123F
:100CD0008A1183120313881B6E2E6F2E692E01302A
:100CE0000A128A1109250A128A1183120313881B1A
:100CF0007A2E7B2E752E06300A128A1109250A12C9
:100D00008A1183120313881B862E872E812E0E30A4
:100D10000A128A1109250A128A1183120313881BE9
:100D2000922E932E8D2E080083120313BD01B71F40
:100D30009A2E9B2EA82EB409B509B609B709B40A94
:100D40000319B50A0319B60A0319B70ABD01BD0A8A
:100D5000BB1FAB2EAC2EBB2EB809B909BA09BB0913
:100D6000B80A0319B90A0319BA0A0319BB0A0130F0
:100D7000FF007F08BD060030C1000030C000003019
:100D8000BF000030BE0037083604350434040319B0
:100D9000CA2ECB2E182FBC01BC0ADB2E0130FD0061
:100DA0000310B40DB50DB60DB70DFD0BD02E0130EF
:100DB000FF007F08BC07B71FDE2EDF2ECE2E0130CE
:100DC000FD000310BE0DBF0DC00DC10DFD0BE12ECA
:100DD00037083B02031DF62E36083A02031DF62E95
:100DE00035083902031DF62E34083802031CF92E8B
:100DF000FA2E092F3408B8023508031C350FB90242
:100E00003608031C360FBA023708031C370FBB0223
:100E10003E1401300310B70CB60CB50CB40CFF3EF9
:100E2000031D0A2F0130BC02031D172F182FDF2EC0
:100E30003D0803191C2F1D2F282FBE09BF09C0090B
:100E4000C109BE0A0319BF0A0319C00A0319C10A5E
:100E50004108B7004008B6003F08B5003E08B4009E
:100E600008000A128A1112260A128A11813083128E
:100E700003139F001F151F193E2F3F2F3B2F831673
:100E800003131E0883120313B3001E08B2003208B6
:100E9000C200C3014208C300C20133084207AE00CA
:100EA0000030031801304307AF00B001B10100303A
:100EB000B7000030B6000330B500FF30B400310891
:100EC000F3003008F2002F08F1002E08F000003087
:100ED000F7000030F6000130F5005130F4000A123E
:100EE0008A1164250A128A11730883120313BB0046
:100EF0007208BA007108B9007008B8000A128A11A5
:100F000094260A128A11831203133708AD0036089B
:100F1000AC003508AB003408AA0080300A128A11F0
:100F200009250A128A11831203132D082C042B049D
:100F30002A04031D9C2F9D2FA42F30300A128A11E2
:100F4000E0240A128A11AD2F2B08FB002A08FA00B0
:100F50000A128A11AA250A128A1156300A128A1117
:100F6000E0240A128A1120300A128A11E0240A129F
:100F70008A1120300A128A11E0240A128A1183127F
:100F800003132A08C2002B08C3002C08C4002D0834
:100F9000C5000230C600450DC50CC40CC30CC20C04
:100FA000C60BCB2F420895002A080339C200043033
:100FB0000310C20DFF3E031DD82F17080C3942073E
:100FC0009700083083120313C4009D30C30005301E
:100FD000C200C20BE92FC30BE92FC40BE92F362F38
:100FE0000A128A11002883132030840034300A1238
:100FF0008A11D8240A128A1183010A128A11312F08
:02400E003B3F36
:00000001FF
