:060000000A128A11F32F21
:100A080064008001840A0406031900340406052DD5
:100A1800F200831203138715720888000714FE304A
:100A2800FF007F0887056230F1006530F000F00BA9
:100A38001B2DF10B1B2D202D0800F900F801791C46
:100A4800262D272D2B2D7708FF007F08F807031088
:100A5800F70D0310F90C7908031D332D342D232DC0
:100A680078080800F200F730FF007F0883120313AC
:100A78008705720888000714FE30FF007F08870585
:100A88006230F1006530F000F00B482DF10B482D75
:100A98004D2D0800F401F501700871040319552D56
:100AA800562D8D2DF601F60A642D01300310F00D38
:100AB800F10DFF3E031D5A2D0130FF007F08F60798
:100AC800F11F672D682D592D01300310F40DF50D18
:100AD800FF3E031D692D71087302031D752D7008F3
:100AE8007202031C782D792D802D7008F20271088E
:100AF800031CF303F302741401300310F10CF00C1F
:100B0800FF3E031D812D0130F602031D8C2D8D2D16
:100B1800682D7508F1007408F00008000030FC002A
:100B28000030FB000030FA000030F900701C9D2DE9
:100B38009E2DB52D7408F907750803110318013E99
:100B48000319A72DFA07760803110318013E0319A4
:100B5800AE2DFB07770803110318013E0319B52DC5
:100B6800FC070130F8000310F40DF50DF60DF70D34
:100B7800F80BB72D01300310F30CF20CF10CF00C4C
:100B8800FF3E031DBF2D7308720471047004031D1A
:100B9800CE2DCF2D9A2D7C08F3007B08F2007A0821
:100BA800F1007908F000080083120313B701102E32
:100BB800F630F7007B08F3007A08F2000A30F000FC
:100BC8000030F1000A128A114E250A128A117008A3
:100BD8000A128A1121250A128A117A07831203132D
:100BE800B4003708203E84003408831380000130A5
:100BF800FF007F08B7070A30F0000030F1007B08DB
:100C0800F3007A08F2000A128A114E250A128A1194
:100C18007108FB007008FA007A087B04031D152E82
:100C2800162EDC2D831203133708203E840083130D
:100C380080010130B7023708FC00FD017C08B500CF
:100C48007D08B600B61F292E2A2E2B2E3F2E3508DA
:100C5800203E840083130008303E0A128A110C25B6
:100C68000A128A11FF3083120313B5070318B60A54
:100C7800FF30B607262E0800831603138701880164
:100C8800013085008130831203139F008E30831654
:100C980003139F0030300A128A1136250A128A116E
:100CA8006230F4006530F300F30B582EF40B582E25
:100CB8005D2E30300A128A1136250A128A116230E6
:100CC800F4006530F300F30B672EF40B672E6C2EDF
:100CD80030300A128A1136250A128A116230F4005D
:100CE8006530F300F30B762EF40B762E7B2E38301E
:100CF8000A128A1136250A128A1183120313881BD5
:100D0800862E872E812E08300A128A1136250A125D
:100D18008A1183120313881B922E932E8D2E013075
:100D28000A128A1136250A128A1183120313881BA4
:100D38009E2E9F2E992E06300A128A1136250A12E7
:100D48008A1183120313881BAA2EAB2EA52E0E30F0
:100D58000A128A1136250A128A1183120313881B74
:100D6800B62EB72EB12E080083120313BD01B71F8C
:100D7800BE2EBF2ECC2EB409B509B609B709B40AE0
:100D88000319B50A0319B60A0319B70ABD01BD0A42
:100D9800BB1FCF2ED02EDF2EB809B909BA09BB095F
:100DA800B80A0319B90A0319BA0A0319BB0A0130A8
:100DB800FF007F08BD060030C1000030C0000030D1
:100DC800BF000030BE003708360435043404031968
:100DD800EE2EEF2E3C2FBC01BC0AFF2E0130FD0089
:100DE8000310B40DB50DB60DB70DFD0BF42E013083
:100DF800FF007F08BC07B71F022F032FF22E013018
:100E0800FD000310BE0DBF0DC00DC10DFD0B052F5C
:100E180037083B02031D1A2F36083A02031D1A2F02
:100E280035083902031D1A2F34083802031C1D2FF8
:100E38001E2F2D2F3408B8023508031C350FB902B0
:100E48003608031C360FBA023708031C370FBB02DB
:100E58003E1401300310B70CB60CB50CB40CFF3EB1
:100E6800031D2E2F0130BC02031D3B2F3C2F032FE7
:100E78003D080319402F412F4C2FBE09BF09C00957
:100E8800C109BE0A0319BF0A0319C00A0319C10A16
:100E98004108B7004008B6003F08B5003E08B40056
:100EA80008000A128A1140260A128A1183120313B3
:100EB8001F151F19602F612F5D2F831603131E083E
:100EC80083120313B3001E08B2003208C200C30124
:100ED8004208C300C20133084207AE0000300318BD
:100EE80001304307AF00B001B1010030B700003056
:100EF800B6000330B500FF30B4003108F300300805
:100F0800F2002F08F1002E08F0000030F700003042
:100F1800F6000030F5003030F4000A128A119225EC
:100F28000A128A11730883120313BB007208BA00ED
:100F38007108B9007008B8000A128A11B8260A1296
:100F48008A11831203133708AD003608AC00350840
:100F5800AB003408AA0080300A128A1136250A121A
:100F68008A11831203132D082C042B042A04031D51
:100F7800BE2FBF2FC62F30300A128A110C250A1235
:100F88008A11CF2F2B08FB002A08FA000A128A11AF
:100F9800D8250A128A1156300A128A110C250A120B
:100FA8008A1120300A128A110C250A128A1120305F
:100FB8000A128A110C250A128A11083083120313A7
:100FC800C4009D30C3000530C200C20BE92FC30B1B
:100FD800E92FC40BE92F5A2F0A128A11002883130C
:100FE8002030840034300A128A1104250A128A112A
:080FF80083010A128A11552F32
:02400E003B3F36
:00000001FF
