:060000000A128A11EE2F26
:100DDC00F20083120313871572088800071407109A
:100DEC00C330F100CD30F000F00BFA2EF10BFA2EDF
:100DFC000800F2008312031387117208880007148D
:100E0C000710C330F100CD30F000F00B0B2FF10BBD
:100E1C000B2F08007E088A007F0882000A128A11B4
:100E2C0010270A128A118000840A04087D0603190F
:100E3C000034FF0A0319FE0A142FCE34CD34CC34FF
:100E4C00CB34CA34C934C8348234833484348534C2
:100E5C008634873488344134423449344E344134F6
:100E6C0059344134831603138701880130300A1238
:100E7C008A11FF260A128A11C330F400CD30F30018
:100E8C00F30B462FF40B462F30300A128A11FF2633
:100E9C000A128A11C330F400CD30F300F30B542F37
:100EAC00F40B542F30300A128A11FF260A128A11C1
:100EBC00C330F400CD30F300F30B622FF40B622F30
:100ECC0038300A128A11FF260A128A11C330F40034
:100EDC00CD30F300F30B702FF40B702F0C300A1283
:100EEC008A11FF260A128A11C330F400CD30F300A8
:100EFC00F30B7E2FF40B7E2F01300A128A11FF2682
:100F0C000A128A11C330F400CD30F300F30B8C2F8E
:100F1C00F40B8C2F08000A128A1138270A128A1136
:100F2C00F901FA017908273E8400831300080A129C
:100F3C008A11FF260A128A1179082E3E8400831327
:100F4C0000080A128A11EE260A128A110130F907DA
:100F5C000318FA0A0030FA077A08803AFF0080304A
:100F6C007F02031DBB2F07307902031CBE2FBF2F3E
:100F7C00982FF501F6010630F7000030F800E62F47
:100F8C007508203E8400831300080A128A11FF267C
:100F9C000A128A1177082E3E8400831300080A1265
:100FAC008A11EE260A128A110130F5070318F60A87
:100FBC000030F607FF30F7070318F80AFF30F80780
:100FCC00F81FE92FEA2FC62FEA2F0A128A110028E0
:100FDC0083133530FD000730FE002330FF00203036
:100FEC0084000A128A1114270A128A1183010A1228
:040FFC008A11912F96
:02400E003B3F36
:00000001FF
