:060000000A128A11EE2F26
:100DFC00483465346C346C346F3400340034003453
:100E0C000034003400340034003400340034F20078
:100E1C008312031387157208880007140710C33058
:100E2C00F100CD30F000F00B192FF10B192F080049
:100E3C00F20083120313871172088800071407103D
:100E4C00C330F100CD30F000F00B2A2FF10B2A2F1C
:100E5C0008007E088A007F0882000A128A112F2758
:100E6C000A128A118000840A04087D0603190034D2
:100E7C00FF0A0319FE0A332F0A128A1179270A1264
:100E8C008A1180300A128A111E270A128A11F70160
:100E9C00F8017708203E8400831300080A128A1197
:100EAC000D270A128A116230F6006530F500F50B39
:100EBC005D2FF60B5D2F622F0130F7070318F80A30
:100ECC000030F8077808803AFF0080307F02031D5D
:100EDC00712F05307702031C742F752F4F2F752F30
:100EEC000A128A11002883160313870188013030F7
:100EFC000A128A111E270A128A11C330F400CD304F
:100F0C00F300F30B872FF40B872F30300A128A1162
:100F1C001E270A128A11C330F400CD30F300F30BF4
:100F2C00952FF40B952F30300A128A111E270A12B6
:100F3C008A11C330F400CD30F300F30BA32FF40B64
:100F4C00A32F38300A128A111E270A128A11C330B5
:100F5C00F400CD30F300F30BB12FF40BB12F0830AC
:100F6C000A128A111E270A128A11C330F400CD30DE
:100F7C00F300F30BBF2FF40BBF2F01300A128A11B1
:100F8C001E270A128A11C330F400CD30F300F30B84
:100F9C00CD2FF40BCD2F06300A128A111E270A1200
:100FAC008A11C330F400CD30F300F30BDB2FF40BBC
:100FBC00DB2F0E300A128A111E270A128A11C33037
:100FCC00F400CD30F300F30BE92FF40BE92F0800FC
:100FDC0083132F30FD000630FE00FE30FF00203062
:100FEC0084000A128A1133270A128A1183010A1209
:040FFC008A11422FE5
:02400E003B3F36
:00000001FF
