:060000000A128A11E02F34
:100994000A128A11B2250A128A110A128A11292608
:1009A4000A128A11CF2C0A128A1100287E088A00A2
:1009B4007F0882000A128A11D8240A128A11800040
:1009C400840A04087D0603190034FF0A0319FE0A89
:1009D400DC2CF200831203138715720888000714B5
:1009E400FE30FF007F088705C330F100CD30F000F2
:1009F400F00BFA2CF10BFA2C0800F200F101721C36
:100A0400042D052D092D7008FF007F08F107031040
:100A1400F00D0310F20C7208031D112D122D012D7F
:100A240071080800F200F730FF007F0883120313F7
:100A34008705720888000714FE30FF007F088705C9
:100A4400C330F100CD30F000F00B262DF10B262D34
:100A5400080053344534543420345334503444342B
:100A64003A342034203420342034523450344D3439
:100A740000340034003400340034003400340034D2
:100A84000034003400340034003400340034F40101
:100A9400F501701C4E2D4F2D552D7208F4070318C7
:100AA400F50A7308F50701300310F20DF30DFF3E4C
:100AB400031D562D01300310F10CF00CFF3E031DF5
:100AC4005D2D70087104031D682D692D4B2D75086B
:100AD400F1007408F0000800FA01FB0176087704BD
:100AE4000319752D762DAD2DFC01FC0A842D0130E2
:100AF4000310F60DF70DFF3E031D7A2D0130FF00A4
:100B04007F08FC07F71F872D882D792D01300310EE
:100B1400FA0DFB0DFF3E031D892D77087902031D95
:100B2400952D76087802031C982D992DA02D760812
:100B3400F8027708031CF903F9027A140130031050
:100B4400F70CF60CFF3E031DA12D0130FC02031D22
:100B5400AC2DAD2D882D7B08F7007A08F60008002F
:100B6400F0308316031386008701880130300A129F
:100B74008A1114250A128A11C330F400CD30F3000F
:100B8400F30BC22DF40BC22D30300A128A11142536
:100B94000A128A11C330F400CD30F300F30BD02DC8
:100BA400F40BD02D30300A128A1114250A128A113E
:100BB400C330F400CD30F300F30BDE2DF40BDE2D47
:100BC40038300A128A1114250A128A11C330F4002B
:100BD400CD30F300F30BEC2DF40BEC2D08300A129E
:100BE4008A1114250A128A11C330F400CD30F3009F
:100BF400F30BFA2DF40BFA2D01300A128A11142585
:100C04000A128A11C330F400CD30F300F30B082E1E
:100C1400F40B082E06300A128A1114250A128A11BE
:100C2400C330F400CD30F300F30B162EF40B162E64
:100C34000E300A128A1114250A128A11C330F400E4
:100C4400CD30F300F30B242EF40B242E0800831272
:100C540003130608F039CA00DE2E80300A128A1106
:100C640014250A128A1183120313CB014B08203E68
:100C74008400831300080A128A11EB240A128A11D1
:100C84000130FF007F0883120313CB0708304B02A7
:100C9400031C4D2E4E2E382E8D300A128A11142527
:100CA4000A128A110C3083120313CB004B08203E26
:100CB4008400831300080A128A11EB240A128A1191
:100CC4000130FF007F0883120313CB070F304B0260
:100CD400031C6D2E6E2E582E88300A128A1114258C
:100CE4000A128A11831203134108CD004008CC0074
:100CF4000A128A11F5260A128A11F42E0130C0074D
:100D04000318C10A0030C10780300A128A11142561
:100D14000A128A11831203134108CD004008CC0043
:100D24000A128A11F5260A128A1107308312031354
:100D34004102D13003194002031CA12EA22EF42E2D
:100D4400D030C0000730C100F42E0130C0020030A2
:100D5400031CC103C10280300A128A1114250A122D
:100D64008A11831203134108CD004008CC000A12F3
:100D74008A11F5260A128A118312031340084104CA
:100D8400031DC52EC62EF42E0130C0000030C10054
:100D9400F42EC001C10180300A128A1114250A12EE
:100DA4008A11003083120313CC00CD000A128A1179
:100DB400F5260A128A11F42E4A08D400D5015508E2
:100DC400003A0319E62EF42E5408703A0319CB2E78
:100DD400C03A0319A72E603A0319802E303A03193A
:100DE4002F2EF42E0800E830F6000330F7008312AB
:100DF40003134D08F9004C08F8000A128A116E25F5
:100E04000A128A11760883120313CE00CF014E080A
:100E1400C8004F08C9006430F6000030F7004908E4
:100E2400F1004808F0001830F200FC30F3000A1218
:100E34008A1149250A128A11831203134C08700778
:100E4400F8004D0803184D0A7107F9000A128A11B7
:100E54006E250A128A11760883120313CE00CF017D
:100E64004E08C6004F08C7000A30F6000030F700ED
:100E74004908F1004808F0001830F200FC30F30093
:100E84000A128A1149250A128A117008831203135F
:100E9400CE007108CF004708F1004608F0009C30EE
:100EA400F200FF30F3000A128A1149250A128A114E
:100EB4007008831203134E07D00071080318710AD7
:100EC4004F07D1004C085007F8004D0803184D0A8D
:100ED4005107F9000A128A116E250A128A1176083E
:100EE40083120313D200D3015208C4005308C5006F
:100EF4001830F00048080A128A11FF240A128A11D5
:100F040083120313CE009C30F00046080A128A11A3
:100F1400FF240A128A1183120313CF00F630F00063
:100F240044080A128A11FF240A128A118312031335
:100F34004F074E074C07D000D1015008C20051089A
:100F4400C30088300A128A1114250A128A118312E6
:100F540003134808303E0A128A11EB240A128A113C
:100F640089300A128A1114250A128A118312031372
:100F74004608303E0A128A11EB240A128A118A307A
:100F84000A128A1114250A128A11831203134408BF
:100F9400303E0A128A11EB240A128A118B300A128B
:100FA4008A1114250A128A11831203134208303E4F
:100FB4000A128A11EB240A128A11080083133E30A4
:100FC400FD000530FE002B30FF00203084000A12A3
:100FD4008A11DC240A128A11BE01BF01C001C101B9
:100FE400C201C301C401C501C601C701C801C901C9
:0C0FF400CA01CB0183010A128A11CA2C29
:02400E003B3F36
:00000001FF
