:060000000A128A11F32F21
:100C8E0064008001840A0406031900340406482E09
:100C9E00F200831203138715720888000714FE30C2
:100CAE00FF007F0887056230F1006530F000F00B21
:100CBE005E2EF10B5E2E632E0800F900F801791CF2
:100CCE00692E6A2E6E2E7708FF007F08F807031034
:100CDE00F70D0310F90C7908031D762E772E662E6C
:100CEE0078080800F200F730FF007F088312031324
:100CFE008705720888000714FE30FF007F088705FD
:100D0E006230F1006530F000F00B8B2EF10B8B2E64
:100D1E00902E0800F401F501700871040319982E45
:100D2E00992ED02EF601F60AA72E01300310F00DE3
:100D3E00F10DFF3E031D9D2E0130FF007F08F607CB
:100D4E00F11FAA2EAB2E9C2E01300310F40DF50DC3
:100D5E00FF3E031DAC2E71087302031DB82E7008E2
:100D6E007202031CBB2EBC2EC32E7008F202710839
:100D7E00031CF303F302741401300310F10CF00C96
:100D8E00FF3E031DC42E0130F602031DCF2ED02EC2
:100D9E00AB2E7508F1007408F00008000A128A11D3
:100DAE0085270A128A110B3083120313AE0002300C
:100DBE00AF00EE30AC000030AD00F930AA000230CA
:100DCE00AB003D30B1002B30B00080300A128A11DA
:100DDE0079260A128A110B30FA000230FB000A1231
:100DEE008A111D270A128A112B300A128A114F26D8
:100DFE000A128A11EE30FA000030FB000A128A1134
:100E0E001D270A128A113D300A128A114F260A1224
:100E1E008A11F930FA000230FB000A128A111D27DE
:100E2E000A128A11192F0A128A110028831203132B
:100E3E00B501552FF630F7007B08F3007A08F20063
:100E4E000A30F0000030F1000A128A1191260A12BF
:100E5E008A1170080A128A1164260A128A117A07F8
:100E6E0083120313B2003508203E84003208831328
:100E7E0080000130FF007F08B5070A30F000003017
:100E8E00F1007B08F3007A08F2000A128A1191260B
:100E9E000A128A117108FB007008FA007A087B04A6
:100EAE00031D5A2F5B2F212F831203133508203E6B
:100EBE008400831380010130B5023508FC00FD016A
:100ECE007C08B3007D08B400B41F6E2F6F2F702FF7
:100EDE00842F3308203E840083130008303E0A120C
:100EEE008A114F260A128A11FF3083120313B30799
:100EFE000318B40AFF30B4076B2F080083160313D0
:100F0E008701880130300A128A1179260A128A1155
:100F1E006230F4006530F300F30B932FF40B932F34
:100F2E00982F30300A128A1179260A128A116230ED
:100F3E00F4006530F300F30BA22FF40BA22FA72FB2
:100F4E0030300A128A1179260A128A116230F400A0
:100F5E006530F300F30BB12FF40BB12FB62F3830F1
:100F6E000A128A1179260A128A1183120313881B18
:100F7E00C12FC22FBC2F08300A128A1179260A12ED
:100F8E008A1183120313881BCD2FCE2FC82F013049
:100F9E000A128A1179260A128A1183120313881BE8
:100FAE00D92FDA2FD42F06300A128A1179260A1277
:100FBE008A1183120313881BE52FE62FE02F0E30C4
:100FCE000A128A1179260A128A1183120313881BB8
:100FDE00F12FF22FEC2F08008313203084003230D3
:100FEE000A128A1147260A128A1183010A128A11DD
:020FFE00D52EEE
:02400E003B3F36
:00000001FF
