:060000000A128A11FA2F1A
:100F22000A128A119F270A128A110A128A11BA27F3
:100F32000A128A11962F0A128A110028FB30831690
:100F4200031387003C308312031397002E30950061
:100F5200063092005E308316031392000930F300CC
:100F62002030F2002F30F100F8014B30F000F70191
:100F7200080073088312031395001708CF3972040F
:100F820097001730F600D530F5001630F400F40B58
:100F9200C82FF50BC82FF60BC82F0000710883125B
:100FA200031395001708CF39780497001730F6001D
:100FB200D530F5001630F400F40BDD2FF50BDD2FE4
:100FC200F60BDD2F0000700883120313950017083B
:100FD200CF39770497001730F600D530F500163078
:100FE200F400F40BF22FF50BF22FF60BF22F0000A8
:0E0FF2000800F701F80183010A128A11912FFD
:02400E003B3F36
:00000001FF
