:060000000A128A11FB2F19
:100F6800831603138801831203138801C030831684
:100F780003138700903083120313980020308316E0
:100F8800031398000930990008000A128A11B4273F
:100F98000A128A11831203138C1ED32FD42FCE2F3B
:100FA8001A08F200E22F02308800CE2F1030880095
:100FB800CE2F12308800CE2F8801CE2F7208F00075
:100FC800F1017108003A0319EA2FCE2F7008413A4F
:100FD8000319D72F033A0319DA2F013A0319DD2F22
:100FE800073A0319E02FCE2F0A128A110028F201BE
:080FF80083010A128A11C92FBE
:02400E003B3F36
:00000001FF
