:060000000A128A11F32F21
:100C560064008001840A04060319003404062C2E5D
:100C6600F200831203138715720888000714FE30FA
:100C7600FF007F0887056230F1006530F000F00B59
:100C8600422EF10B422E472E0800F900F801791C7E
:100C96004D2E4E2E522E7708FF007F08F8070310C0
:100CA600F70D0310F90C7908031D5A2E5B2E4A2EF8
:100CB60078080800F200F730FF007F08831203135C
:100CC6008705720888000714FE30FF007F08870535
:100CD6006230F1006530F000F00B6F2EF10B6F2ED5
:100CE600742E0800F401F5017008710403197C2EB6
:100CF6007D2EB42EF601F60A8B2E01300310F00D70
:100D0600F10DFF3E031D812E0130FF007F08F6071F
:100D1600F11F8E2E8F2E802E01300310F40DF50D4F
:100D2600FF3E031D902E71087302031D9C2E700852
:100D36007202031C9F2EA02EA72E7008F2027108C5
:100D4600031CF303F302741401300310F10CF00CCE
:100D5600FF3E031DA82E0130F602031DB32EB42E4E
:100D66008F2E7508F1007408F00008000A128A1127
:100D760085270A128A117B3083120313AE000030D6
:100D8600AF00EA30AC000030AD009130AA00FF3071
:100D9600AB003D30B2002B30B1002D30B0008030BA
:100DA6000A128A115D260A128A117B30FA00003077
:100DB600FB000A128A111D270A128A112D300A1207
:100DC6008A1133260A128A11EA30FA000030FB0033
:100DD6000A128A111D270A128A113D300A128A1137
:100DE60033260A128A112D300A128A1133260A1264
:100DF6008A1183120313AA09AB09AA0A0319AB0ABB
:100E06002A082B04031D082F092F102F30300A1231
:100E16008A1133260A128A11192F2B08FB002A0879
:100E2600FA000A128A111D270A128A11192F0A12AC
:100E36008A11002883120313B601552FF630F700E6
:100E46007B08F3007A08F2000A30F0000030F10067
:100E56000A128A1175260A128A1170080A128A1154
:100E660048260A128A117A0783120313B30036083A
:100E7600203E84003308831380000130FF007F0882
:100E8600B6070A30F0000030F1007B08F3007A085C
:100E9600F2000A128A1175260A128A117108FB00DD
:100EA6007008FA007A087B04031D5A2F5B2F212F46
:100EB600831203133608203E840083138001013019
:100EC600B6023608FC00FD017C08B4007D08B500BA
:100ED600B51F6E2F6F2F702F842F3408203E84008D
:100EE60083130008303E0A128A1133260A128A1129
:100EF600FF3083120313B4070318B50AFF30B50792
:100F06006B2F0800831603138701880130300A12FD
:100F16008A115D260A128A116230F4006530F300E8
:100F2600F30B932FF40B932F982F30300A128A115C
:100F36005D260A128A116230F4006530F300F30B65
:100F4600A22FF40BA22FA72F30300A128A115D268A
:100F56000A128A116230F4006530F300F30BB12FE8
:100F6600F40BB12FB62F38300A128A115D260A12F9
:100F76008A1183120313881BC12FC22FBC2F08307E
:100F86000A128A115D260A128A1183120313881B1C
:100F9600CD2FCE2FC82F01300A128A115D260A12D4
:100FA6008A1183120313881BD92FDA2FD42F063008
:100FB6000A128A115D260A128A1183120313881BEC
:100FC600E52FE62FE02F0E300A128A115D260A124F
:100FD6008A1183120313881BF12FF22FEC2F0800BE
:100FE60083132030840033300A128A112B260A120A
:0A0FF6008A1183010A128A11B92E34
:02400E003B3F36
:00000001FF
