:060000000A128A11E22F32
:10001A00F200F730FF007F08831203138705720886
:10002A0088000714FE30FF007F088705C330F100FF
:10003A00CD30F000F00B1F28F10B1F2808004234C6
:10004A0041345434543445345234593420344834C5
:10005A00493447344834203420340034003442349C
:10006A0041345434543445345234593420344E349F
:10007A004F3452344D3441344C3400340034423419
:10008A0041345434543445345234593420344C3481
:10009A004F3457342034203420340034003442346E
:1000AA0041345434543456344F344C3454343A343E
:1000BA002034203420342034563400340034770875
:1000CA00803983120313A4007708F8007807AB007D
:1000DA00F61F7028712872282B142B08031976280A
:1000EA00772887282B0A031D7B287C288428003040
:1000FA00F7000030F6000030F5000030F400F61783
:10010A00F7018F280030F7000030F6000030F500C4
:10011A000030F40073088039FF007F08A4067308D2
:10012A00F8007807AC00F21F9B289C289D282C1405
:10013A002C080319A128A228B2282C0A031DA628D4
:10014A00A728AF280030F3000030F2000030F10099
:10015A000030F000F217F301BA280030F300003043
:10016A00F2000030F1000030F000730872047104EC
:10017A007004031DC128C228DB280030F7000030B4
:10018A00F6000030F5000030F4008030F6047F30CD
:10019A00F7042408FF007F08F7047708F3007608BD
:1001AA00F2007508F1007408F000382A2B08031DC4
:1001BA00DF28E028E9280030F3000030F2000030A0
:1001CA00F1000030F000382A2B08F800F90179080C
:1001DA00FB002C087802FA00031CFB037A087F3E16
:1001EA00A5007B080318013E003EA6007708A3007D
:1001FA007608A2007508A1007408A0000030F70074
:10020A000030F6000030F5000030F4000030AA009B
:10021A000030A9000030A8000030A700AC01652911
:10022A002C08031919291A293A290130F800031050
:10023A00A00DA10DA20DA30DF80B1C290130F80089
:10024A000310F40DF50DF60DF70DF80B2529AA1F6D
:10025A002F293029312974140130F8000310A70D11
:10026A00A80DA90DAA0DF80B332973082302031D43
:10027A00482972082202031D482971082102031D18
:10028A00482970082002031C4B294C2961292A1786
:10029A007008A0027108031C710F54295529A10284
:1002AA007208031C720F5A295B29A2027308031CE5
:1002BA00730F60296129A3020130FF007F08AC0790
:1002CA001A302C02031C6A296B29152923082204D7
:1002DA0021042004031972297329922927149229C7
:1002EA000130F8000310F40DF50DF60DF70DF80BBB
:1002FA007729AA1F81298229832974140130F800D9
:10030A000310A70DA80DA90DAA0DF80B8529FF301A
:10031A00A5070318A60AFF30A607F61F95299629EE
:10032A007529AC01AA1F9A299B29B729FF302705ED
:10033A00F800FF302805F900FF302905FA007F3060
:10034A002A05FB007B087A04790478040319AE298C
:10035A00AF29B229AC01AC0AB729741CB529B62950
:10036A00B729AF292C080319BB29BC29ED2901306B
:10037A00F407003003180130F50700300318013084
:10038A00F607003003180130F707771CCD29CE296C
:10039A00ED297408F8007508F9007608FA0077085C
:1003AA00FB000130FC007B0DFB0CFA0CF90CF80C7D
:1003BA00FC0BD8297B08F7007A08F6007908F500C3
:1003CA007808F4000130A5070318A60A0030A6072A
:1003DA002608803AFF0080307F02031DF629FF308D
:1003EA002502031CF929FA29082AFF30831203136C
:1003FA00A5000030A6000030F7000030F6000030FB
:10040A00F5000030F400831203132608803AFF0037
:10041A0080307F02031D132A013025020318162A91
:10042A00172A242A83120313A501A6010030F70014
:10043A000030F6000030F5000030F400A401831209
:10044A0003132508AB002B1C2B2A2C2A2E2AF6175D
:10045A00322A7F30FF007F08F6052B08F8000310C8
:10046A00780CF700CE28080073088039F800730862
:10047A0083120313A0002007FA00F21F452A462A16
:10048A00472A7A147A0803194B2A4C2A5C2A7A0AD0
:10049A00031D502A512A592A0030F3000030F20075
:1004AA000030F1000030F000F217F301642A003046
:1004BA00F3000030F2000030F1000030F00077085D
:1004CA008039F9007908780603196C2A6D2A6E2A90
:1004DA0078177708A0002007F900F61F752A762AF0
:1004EA00772A7914790803197B2A7C2A8C2A790AB3
:1004FA00031D802A812A892A0030F7000030F6007D
:10050A000030F5000030F400F617F701942A0030A5
:10051A00F7000030F6000030F5000030F4007A08E9
:10052A0079020318992A9A2AC02A781F9D2A9E2A94
:10053A00A22A8030FF007F08F8067A08FB007908B3
:10054A00FA007B08F9007008FB007408F0007B08C9
:10055A00F4007108FB007508F1007B08F5007208C9
:10056A00FB007608F2007B08F6007308FB007708A8
:10057A00F3007B08F700FB017908A000A10121081C
:10058A00A3007A082002A200031CA3032308803ACE
:10059A00FF0080307F02031DD42A1A302202031C76
:1005AA00D72AD82A112B7308720471047004031D08
:1005BA00DF2AE12A0130E22A0030FB000030F30092
:1005CA000030F2000030F1000030F0007908FA0043
:1005DA00172B7B1CF12AF22AFB2A7B0883120313AE
:1005EA00A0000310200C0138FB00FD2A0310FB0CAD
:1005FA00701C002B012B022BFB17013083120313F3
:10060A00A000730DF30CF20CF10CF00CA00B062BEE
:10061A000130FF007F08FA0779087A02031C162BBB
:10062A00172BEE2A781B1A2B1B2B682B7A08031D13
:10063A001F2B202B292B0030F3000030F200003052
:10064A00F1000030F0009C2C7408F00775080311C3
:10065A000318013E0319322BF10776080311031818
:10066A00013E0319392BF207770803110318013EDB
:10067A000319402BF307731C432B442B202C7B1CA0
:10068A00472B482B512B7B0883120313A00003101E
:10069A00200C0138FB00532B0310FB0C701C562B4B
:1006AA00572B582BFB17013083120313A000730D2D
:1006BA00F30CF20CF10CF00CA00B5C2B0130FF00D8
:1006CA007F08FA07202C7308803AFF007708803ADF
:1006DA007F02031D7A2B76087202031D7A2B750896
:1006EA007102031D7A2B7408700203187D2B7E2B6E
:1006FA00D82BFF3083120313A000FF30A100FF3074
:10070A00A200FF30A3007408A4007508A5007608AB
:10071A00A6007708A7007008A4027108031C710FCD
:10072A00972B982BA5027208031C720F9D2B9E2BE8
:10073A00A6027308031C730FA32BA42BA702240879
:10074A00A00725080318250FAB2BAC2BA1072608F9
:10075A000318260FB12BB22BA20727080318270A62
:10076A00A3072308F3002208F2002108F100200859
:10077A00F0008030FF007F08F806FB09FB0A7B08BF
:10078A00031DC82BC92BE62B0130F00700300318D4
:10079A000130F107003003180130F2070030031866
:1007AA000130F307E62B7408F0027508031C750F75
:1007BA00F1027608031C760FF2027708031C770F02
:1007CA00F3027308720471047004031DED2BEE2BFF
:1007DA001C2C7B08031DF22BF32B1C2C0030F3007E
:1007EA000030F2000030F1000030F0009C2C0130A3
:1007FA0083120313A0000310F00DF10DF20DF30D97
:10080A00A00B002CFB1F0A2C0B2C0C2C70147B1C2D
:10081A000F2C102C132C0314FB0D152C0310FB0D9D
:10082A007A080319192C1A2C1C2C0130FA02F21F0F
:10083A001F2C202CFC2BF901FB1F242C252C332CDC
:10084A007B087F3903192A2C2B2C2E2CF901F90A43
:10085A00332C701C312C322C332C2B2C7908031995
:10086A00372C382C6E2C0130F00700300318013079
:10087A00F107003003180130F20700300318013085
:10088A00F307731C492C4A2C6E2C7008831203132D
:10089A00A0007108A1007208A2007308A300013029
:1008AA00A400230DA30CA20CA10CA00CA40B562C83
:1008BA002308F3002208F2002108F1002008F000C2
:1008CA007A0A0319692C6A2C6E2C0130FF007F0802
:1008DA00FA077A0A0319722C732C782C7A08031DEA
:1008EA00772C782C862C0030F3000030F200003090
:1008FA00F1000030F0007A08031D842C852C862C28
:10090A00F8017A1C892C8A2C8C2CF217902C7F30B7
:10091A00FF007F08F2057A0883120313A000031070
:10092A00200CF300F81F9A2C9B2C9C2CF317080020
:10093A008312031350088039DA005008D50055078E
:10094A00E000CF1FA92CAA2CAB2C60146008031955
:10095A00AF2CB02CBF2C600A031DB42CB52CBD2CB7
:10096A000030D0000030CF000030CE000030CD0083
:10097A00CF17C72C0030D0000030CF000030CE0097
:10098A000030CD0054088039FF007F08DA06540889
:10099A00D5005507DF00D31FD32CD42CD52C5F14D8
:1009AA005F080319D92CDA2CE92C5F0A031DDE2C07
:1009BA00DF2CE72C0030D4000030D3000030D20006
:1009CA000030D100D317F12C0030D4000030D3000E
:1009DA000030D2000030D1005F080319F52CF62C44
:1009EA00FB2C6008031DFA2CFB2C042D0030D000D0
:1009FA000030CF000030CE000030CD00E12F4D088E
:100A0A00F00053080A128A15F6210A128A1171088F
:100A1A0083120313E6007008E5006508D500D601C5
:100A2A00D701D8015808DE005708DD005608DC0057
:100A3A005508DB006608D500D601D701D801580849
:100A4A00E4005708E3005608E2005508E1004E08A2
:100A5A00F00052080A128A15F6210A128A11710840
:100A6A0083120313E6007008E5006508D500D60175
:100A7A00D701D8015508DB07560803110318013EB0
:100A8A000319482DDC07570803110318013E0319FF
:100A9A004F2DDD07580803110318013E0319562D7F
:100AAA00DE076608D500D601D701D8015508E10747
:100ABA00560803110318013E0319642DE20757086B
:100ACA0003110318013E03196B2DE307580803119C
:100ADA000318013E0319722DE4074F08F00051086C
:100AEA000A128A15F6210A128A117108831203134F
:100AFA00E6007008E5006508D500D601D701D801DF
:100B0A005508DB07560803110318013E03198E2DF9
:100B1A00DC07570803110318013E0319952DDD0759
:100B2A00580803110318013E03199C2DDE076608B5
:100B3A00D500D601D701D8015508E1075608031197
:100B4A000318013E0319AA2DE207570803110318D7
:100B5A00013E0319B12DE307580803110318013E9A
:100B6A000319B82DE4070830D5000310DB0DDC0D9E
:100B7A00DD0DDE0DD50BBA2D4E08F00051080A1214
:100B8A008A15F6210A128A11710883120313E600E4
:100B9A007008E5006508D5006608D600D701D801B7
:100BAA005508DB07560803110318013E0319DE2D09
:100BBA00DC07570803110318013E0319E52DDD0769
:100BCA00580803110318013E0319EC2DDE074D08DE
:100BDA00F00052080A128A15F6210A128A117108BF
:100BEA0083120313E6007008E5006508D50066085D
:100BFA00D600D701D8015508DB0756080311031898
:100C0A00013E0319092EDC07570803110318013E98
:100C1A000319102EDD07580803110318013E0319A2
:100C2A00172EDE070830D5000310DB0DDC0DDD0DB5
:100C3A00DE0DD50B192E4D08F00051080A128A153F
:100C4A00F6210A128A11710883120313E60070084A
:100C5A00E5006508D5006608D600D701D801550811
:100C6A00DB07560803110318013E03193D2EDC0762
:100C7A00570803110318013E0319442EDD075808CB
:100C8A0003110318013E03194B2EDE074E08F0002C
:100C9A0053080A128A15F6210A128A117108831258
:100CAA000313E6007008E5006508D5006608D6005B
:100CBA00D701D8015508E107560803110318013E68
:100CCA000319682EE207570803110318013E031996
:100CDA006F2EE307580803110318013E0319762EF5
:100CEA00E4074F08F00052080A128A15F6210A1280
:100CFA008A11710883120313E6007008E50065087B
:100D0A00D5006608D600D701D8015508E10756086C
:100D1A0003110318013E0319932EE2075708031122
:100D2A000318013E03199A2EE30758080311031802
:100D3A00013E0319A12EE4074F08F00053080A12D6
:100D4A008A15F6210A128A11710883120313E60022
:100D5A007008E5006508D5006608D600D701D801F5
:100D6A0008300310D50DD60DD70DD80DFF3E031D43
:100D7A00B62E5508E107560803110318013E031958
:100D8A00C72EE207570803110318013E0319CE2E96
:100D9A00E307580803110318013E0319D52EE40787
:100DAA005B08D5005C08D6005D08D7005E08D8004D
:100DBA0018300310D80CD70CD60CD50CFF3E031DE7
:100DCA00DE2E5508E107560803110318013E0319E0
:100DDA00EF2EE207570803110318013E0319F62EF6
:100DEA00E307580803110318013E0319FD2EE4070F
:100DFA000830D5000310DB0DDC0DDD0DDE0DD50B43
:100E0A00FF2E60085F07D500D601D60D5508823E31
:100E1A00E50056080318013EFF3EE600312F013077
:100E2A00D5000310E10DE20DE30DE40DD50B162FED
:100E3A00DE1F202F212F222F61140130D50003102D
:100E4A00DB0DDC0DDD0DDE0DD50B242FFF30E507A4
:100E5A000318E60AFF30E607E31F342F352F142F55
:100E6A00DF01DE1F392F3A2F562FFF305B05D500E1
:100E7A00FF305C05D600FF305D05D7007F305E0588
:100E8A00D800580857045604550403194D2F4E2FFD
:100E9A00512FDF01DF0A562F611C542F552F562F71
:100EAA004E2F5F0803195A2F5B2F8C2F0130E10751
:100EBA00003003180130E207003003180130E3075D
:100ECA00003003180130E407641C6C2F6D2F8C2F3F
:100EDA006108D5006208D6006308D7006408D80004
:100EEA000130D900580DD80CD70CD60CD50CD90B1B
:100EFA00772F5808E4005708E3005608E20055081F
:100F0A00E1000130E5070318E60A0030E607660843
:100F1A00803AFF0080307F02031D952FFF30650263
:100F2A00031C982F992FA42F7F3083120313E400F8
:100F3A008030E3000030E2000030E100D52F831258
:100F4A0003136608803AFF0080307F02031DAF2F2B
:100F5A00013065020318B22FB32FBF2F003083125E
:100F6A000313E4000030E3000030E2000030E10047
:100F7A00DA01D52F831203136508E000FF30E1057B
:100F8A00FF30E2057F30E3050030E405601CCE2F18
:100F9A00CF2FD02FE3176008D5000310550CE400BB
:100FAA005A08FF007F08E4046408D0006308CF00F1
:100FBA006208CE006108CD0008008313E030FD000E
:100FCA000030FE002430FF00A03084000A128A1587
:100FDA008A210A128A1183160313E001E101E20150
:100FEA00E301E401E501E60183120313EF01830142
:060FFA000A128A15782995
:1012F0000A128A151D220A128A150A128A15A226B6
:101300000A128A157D290A128A1100287E088A008D
:101310007F0882000A128A1586210A128A15800027
:10132000840A04087D0603190034FF0A0319FE0A23
:101330008A29F200831203138715720888000714A4
:10134000FE30FF007F088705C330F100CD30F0008C
:10135000F00BA829F10BA829080080308312031391
:10136000C8064C08F3004B08F2004A08F10049088F
:10137000F0004808F7004708F6004608F500450861
:10138000F4000A128A1139220A128A15730883128C
:101390000313C8007208C7007108C6007008C500B2
:1013A0000800F401F501701CD629D729DD2972083F
:1013B000F4070318F50A7308F50701300310F20D5E
:1013C000F30DFF3E031DDE2901300310F10CF00C7C
:1013D000FF3E031DE52970087104031DF029F12962
:1013E000D3297508F1007408F0000800F800F40132
:1013F000F5017008F200F3017208F6007308F700B7
:10140000781C032A042A0A2A7608F4070318F50A26
:101410007708F50701300310F60DF70DFF3E031DA9
:101420000B2A0310F80C7808031D172A182A002A23
:101430007508F1007408F0000800F03083160313FB
:1014400086008701880130300A128A110D200A12A5
:101450008A15C330F400CD30F300F30B2D2AF40BC2
:101460002D2A30300A128A110D200A128A15C33033
:10147000F400CD30F300F30B3B2AF40B3B2A303061
:101480000A128A110D200A128A15C330F400CD30D9
:10149000F300F30B492AF40B492A38300A128A1157
:1014A0000D200A128A15C330F400CD30F300F30B7F
:1014B000572AF40B572A08300A128A110D200A12F3
:1014C0008A15C330F400CD30F300F30B652AF40B1A
:1014D000652A01300A128A110D200A128A15C330BA
:1014E000F400CD30F300F30B732AF40B732A0630AB
:1014F0000A128A110D200A128A15C330F400CD3069
:10150000F300F30B812AF40B812A0E300A128A11A0
:101510000D200A128A15C330F400CD30F300F30B0E
:101520008F2AF40B8F2A08000310831203132F0D48
:10153000300DB6003608031D9E2A9F2AA82A0030C7
:10154000B0000030AF000030AE000030AD000B2B1B
:101550002D08B1002E08B2002F08B3003008B400E7
:101560001F300310B40CB30CB20CB10CFF3E031DC2
:10157000B12A3108B500AF17FF30AD05FF30AE0519
:10158000FF30AF050030B0059630B602B61FC92A4D
:10159000CA2AE42A3608803A973E0318D02AD12A6C
:1015A000D22A9F2A01300310B00CAF0CAE0CAD0C48
:1015B000FF3E031DD32A0130FF007F08B607031D3D
:1015C000E22AE32AD22AFB2A20303602031CE92A27
:1015D000EA2AF62A9F2A0130B1000310AD0DAE0DA4
:1015E000AF0DB00DB10BED2A0130B6023608031D68
:1015F000FA2AFB2AEB2A35080319FF2A002B0B2BAA
:10160000AD09AE09AF09B009AD0A0319AE0A031955
:10161000AF0A0319B00A080000307005F800003066
:101620007105F90080307205FA007F307305FB0008
:101630007B087A0479047804031D1F2B202B282BA8
:101640000030F3000030F2000030F1000030F00014
:1016500000307405F80000307505F900803076051B
:10166000FA007F307705FB007B087A047904780460
:10167000031D3B2B3C2B442B0030F7000030F600C1
:101680000030F5000030F400F31F472B482B6C2B83
:101690000030F8000030F9000030FA008030FB0024
:1016A0007008F8027108031C710F572B582BF902B0
:1016B0007208031C720F5D2B5E2BFA027308031C69
:1016C000730F632B642BFB027B08F3007A08F20094
:1016D0007908F1007808F000F71F6F2B702B942B1E
:1016E0000030F8000030F9000030FA008030FB00D4
:1016F0007408F8027508031C750F7F2B802BF90204
:101700007608031C760F852B862BFA027708031CBC
:10171000770F8B2B8C2BFB027B08F7007A08F600E7
:101720007908F5007808F4008030F3068030F70679
:1017300077087302031DA62B76087202031DA62BE1
:1017400075087102031DA62B740870020318A92BDB
:10175000AA2BAC2B0310AD2B031408008312031328
:10176000BF003F080319B52BB62BCA2BBA1FB92BE4
:10177000BA2BCA2B3709C1003809C2003909C30086
:101780003A09C400C10A0319C20A0319C30A03199A
:10179000C40AD22B3A08C4003908C3003808C20072
:1017A0003708C1003A08390438043704031DD92B1F
:1017B000DA2BE32B0030BA000030B9000030B8005B
:1017C0000030B700672C9630C000F32B0130FF00CB
:1017D0007F08C00701300310C40CC30CC20CC10C3D
:1017E000FF3E031DEB2BFE304405031DF82BF92BA8
:1017F000E62B152C0130FF007F08C0070130C10720
:10180000003003180130C207003003180130C3074D
:10181000003003180130C40701300310C40CC30C9E
:10182000C20CC10CFF3E031D0D2CFF304405031DEF
:101830001A2C1B2CFA2B272C0130C0020130BB00C4
:101840000310C10DC20DC30DC40DBB0B202CC31B57
:101850002A2C2B2C312C023040020318302C312C36
:101860001C2C4018342C352C3D2CFF30C105FF308A
:10187000C2057F30C305FF30C4050310C00C40080B
:10188000BB00BC01BD01BE0118300310BB0DBC0D77
:10189000BD0DBE0DFF3E031D452C3B08C1043C0899
:1018A000C2043D08C3043E08C4043F080319592C70
:1018B0005A2C5F2CBA1F5D2C5E2C5F2CC417440879
:1018C000BA004308B9004208B8004108B700080050
:1018D000831603136308F3006208F2006108F10045
:1018E0006008F0004130F7007030F6000030F5007D
:1018F0000030F4000A128A150C230A128A15031C00
:10190000822C832CBE2C831603136308F300620819
:10191000F2006108F1006008F0004130F7008C30FF
:10192000F6000030F5000030F4000A128A150C238E
:101930000A128A1503189D2C9E2CBE2CC0300A1248
:101940008A110D200A128A1583120313A0012008A0
:10195000C03E8400831300080A128A1599210A12D6
:101960008A150130FF007F0883120313A0070F3090
:101970002002031CBC2CBD2CA72C692D4130F30088
:101980008C30F200CC30F100CD30F0008316031320
:101990006308F7006208F6006108F5006008F400CB
:1019A0000A128A150C230A128A150318D82CD92C6E
:1019B000142D831603136308F3006208F200610814
:1019C000F1006008F0004130F700A430F60000306C
:1019D000F5000030F4000A128A150C230A128A1549
:1019E0000318F32CF42C142DC0300A128A110D2088
:1019F0000A128A1583120313A1012108B03E840044
:101A0000831300080A128A1599210A128A150130D7
:101A1000FF007F0883120313A1070F302102031C6C
:101A2000122D132DFD2C692D4130F300A430F2004E
:101A3000CC30F100CD30F000831603136308F700BB
:101A40006208F6006108F5006008F4000A128A15C1
:101A50000C230A128A1503182E2D2F2D692D4130C3
:101A6000F300B430F2000030F1000030F0008316D3
:101A700003136308F7006208F6006108F5006008C8
:101A8000F4000A128A150C230A128A15031C492D28
:101A90004A2D692DC0300A128A110D200A128A15AA
:101AA00083120313A2012208A03E840083130008BE
:101AB0000A128A1599210A128A150130FF007F083F
:101AC00083120313A2070F302202031C682D692D15
:101AD000532D0800831203136A08CC006908CB0059
:101AE0006808CA006708C9006A08B0006908AF0042
:101AF0006808AE006708AD000A128A1594220A121F
:101B00008A15831203132D08B7002E08B800003081
:101B1000B81BFF30B900BA0001300A128A15AE2393
:101B20000A128A15831203133A08C8003908C7003D
:101B30003808C6003708C5000A128A15AD210A12F6
:101B40008A15831203134808D4004708D3004608B7
:101B5000D2004508D1004130D0002030CF00003005
:101B6000CE000030CD000A128A119D240A128A1577
:101B700083120313500883160313EA00831203131E
:101B80004F0883160313E900831203134E088316CC
:101B90000313E800831203134D0883160313E700B1
:101BA0006A0883120313B0008316031369088312B3
:101BB0000313AF0083160313680883120313AE00E8
:101BC00083160313670883120313AD000A128A15E4
:101BD00094220A128A15831203132D088316031305
:101BE000E400831203136A08F7006908F600680826
:101BF000F5006708F4004130F3002030F2000030B7
:101C0000F1000030F0000A128A1164200A128A15CD
:101C1000730883120313B0007208AF007108AE009E
:101C20007008AD000A128A1594220A128A158312CE
:101C300003132D08EF006A08CC006908CB00680880
:101C4000CA006708C9000A30F2000030F3006F08CC
:101C5000EB00EC016B08F0006C08F1000A128A1529
:101C6000D1210A128A15700883120313B700710874
:101C7000B8000030B81BFF30B900BA0001300A12BA
:101C80008A15AE230A128A15831203133A08C80074
:101C90003908C7003808C6003708C5000A128A1577
:101CA000AD210A128A15831203134808B0004708B1
:101CB000AF004608AE004508AD000A128A1594220E
:101CC0000A128A15831203132D0883160313E500E5
:101CD00089300A128A110D200A128A158312031301
:101CE0006F08303E0A128A1599210A128A158A3025
:101CF0000A128A110D200A128A1583160313650829
:101D0000303E0A128A1599210A128A158B300A125E
:101D10008A110D200A128A152E300A128A1599216D
:101D20000A128A158C300A128A110D200A128A159D
:101D3000831603136408303E0A128A1599210A1289
:101D40008A150800831203130608F039831603135B
:101D5000E600E72F80300A128A110D200A128A1538
:101D6000FD017D08D03E8400831300080A128A1505
:101D700099210A128A150130FF007F08FD070930FA
:101D80007D02031CC42EC52EB12E413083160313D1
:101D9000E3007030E2000030E1000030E000630852
:101DA00083120313EA0083160313620883120313DA
:101DB000E90083160313610883120313E8008316F6
:101DC0000313600883120313E7000A128A156A25B9
:101DD0000A128A15831603135D080A128A159921BF
:101DE0000A128A150A128A1568240A128A15FF2F08
:101DF0003D30F300CC30F200CC30F100CD30F000BB
:101E0000831603136308F7006208F6006108F50003
:101E10006008F4000A128A1139220A128A1573081E
:101E200083160313E3007208E2007108E1007008F2
:101E3000E0004130F300B430F2000030F100003037
:101E4000F0006308F7006208F6006108F50060081A
:101E5000F4000A128A150C230A128A150318312F6E
:101E6000322F3C2F413083160313E300B430E200DD
:101E70000030E1000030E000831603136308831292
:101E80000313EA0083160313620883120313E900A5
:101E900083160313610883120313E80083160313E8
:101EA000600883120313E7000A128A156A250A12D2
:101EB0008A15F22E3D30C800CC30C700CC30C600A9
:101EC000CD30C50083160313630883120313CC00BF
:101ED00083160313620883120313CB0083160313C4
:101EE000610883120313CA00831603136008831268
:101EF0000313C9000A128A15AD210A128A1583122A
:101F00000313480883160313E300831203134708DF
:101F100083160313E2008312031346088316031388
:101F2000E10083120313450883160313E0006308DE
:101F3000F3006208F2006108F1006008F00041302F
:101F4000F7007030F6000030F5000030F4000A129F
:101F50008A150C230A128A150318AF2FB02F3C2FB5
:101F6000413083160313E3007030E2000030E100DB
:101F70000030E0003C2F413083160313E3008D3026
:101F8000E2009930E1009A30E00063088312031305
:101F9000EA0083160313620883120313E900831611
:101FA0000313610883120313E80083160313600808
:101FB00083120313E7000A128A156A250A128A158A
:101FC000C0300A128A110D200A128A15F22E6608F4
:101FD00083120313ED00EE016E08003A0319F12F8E
:101FE000FF2F6D08703A0319BB2FC03A03195A2FFF
:101FF000603A0319F82E303A0319AA2EFF2F080071
:02400E003B3F36
:00000001FF
